:04000000FEEF7FF0A0
:101000000000FAEC0BF03E6A000E316E030EABEC02
:101010000BF0436E2C0E396E29C031F0326A000E8F
:10102000346E0A0E336E2EEC0AF031503A6EE6EC56
:101030000AF0436E400E316E030EABEC0BF0436EC4
:10104000090E3D6EA70EE82EFED73D2EFCD7000000
:10105000000E316E030EABEC0BF0436E2C0E396EAE
:1010600029C031F0326A000E346E0A0E336E8FECF6
:101070000AF031503A6EE6EC0AF0436E800E316EA3
:10108000030EABEC0BF0436E090E3D6EA70EE82E7F
:10109000FED73D2EFCD70000000E316E030EABECE8
:1010A0000BF0436E2C0E396E2AC031F0326A000EFE
:1010B000346E0A0E336E2EEC0AF031503A6EE6ECC6
:1010C0000AF0436E080E316E030EABEC0BF0436E6C
:1010D000090E3D6EA70EE82EFED73D2EFCD7000070
:1010E000000E316E030EABEC0BF0436E2C0E396E1E
:1010F0002AC031F0326A000E346E0A0E336E8FEC65
:101100000AF031503A6EE6EC0AF0436E100E316E82
:10111000030EABEC0BF0436E090E3D6EA70EE82EEE
:10112000FED73D2EFCD70000000E316E030EABEC57
:101130000BF0436E2C0E396E2BC031F0326A000E6C
:10114000346E0A0E336E2EEC0AF031503A6EE6EC35
:101150000AF0436E010E316E030EABEC0BF0436EE2
:10116000090E3D6EA70EE82EFED73D2EFCD70000DF
:10117000000E316E030EABEC0BF0436E2C0E396E8D
:101180002BC031F0326A000E346E0A0E336E8FECD3
:101190000AF031503A6EE6EC0AF0436E020E316E00
:1011A000030EABEC0BF0436E090E3D6EA70EE82E5E
:1011B000FED73D2EFCD70000000E316E030EABECC7
:1011C0000BF0436E3E2A320E3E64E9EF08F0EBEF7F
:1011D00008F004EF08F0292A3C0E2964F2EF08F029
:1011E000F4EF08F0F6EF08F02A2A296A3C0E2A6488
:1011F000FCEF08F0FEEF08F000EF09F02B2A2A6A56
:101200000C0E2B6406EF09F008EF09F003EF08F06D
:101210002B6A03EF08F0FEEF7FF03150D8B413EFE4
:1012200009F015EF09F033EF09F03150D96EDA6AA1
:10123000DF50070B326E080E326021EF09F023EF0A
:1012400009F033EF09F03150D96EDA6ADF30E83255
:10125000E832070B326E040E326431EF09F033EFDF
:1012600009F08BEF09F0000EA2EF09F03150D96EB2
:10127000DA6ADF50070B326E010E336E322A43EF0B
:1012800009F0D8903336322E41EF09F03350FF0A7F
:10129000346E3150D96EDA6ADF30E832E832070B4B
:1012A000020DF3500B0FD96EDA6ADECF35F0DDCFC9
:1012B00036F035C0D9FF36C0DAFF3450DF16A1EF63
:1012C00009F03150D96EDA6ADF50070B326E010E29
:1012D000336E322A6EEF09F0D8903336322E6CEF2F
:1012E00009F03150D96EDA6ADF30E832E832070BA4
:1012F000020DF3500B0FD96EDA6ADECF34F0DDCF7A
:1013000035F034C0D9FF35C0DAFF3350DF12A1EF1A
:1013100009F0A1EF09F03150D96EDA6ADFBE93EF20
:1013200009F096EF09F0010E97EF09F0000E000AA0
:10133000D8B436EF09F0010AD8B461EF09F089EFAB
:1013400009F0010E12003150D8B4A9EF09F0ABEF4B
:1013500009F0C9EF09F03150D96EDA6ADF50070B96
:10136000336E080E3360B7EF09F0B9EF09F0C9EF3B
:1013700009F03150D96EDA6ADF30E832E832070B13
:10138000336E040E3364C7EF09F0C9EF09F021EFA3
:101390000AF0000E2DEF0AF03150D96EDA6ADF50F4
:1013A000070B336E010E346E332AD9EF09F0D89053
:1013B0003436332ED7EF09F03450FF0A356E3150F2
:1013C000D96EDA6ADF30E832E832070B020DF350EB
:1013D000010FD96EDA6ADECF36F0DDCF37F036C0D6
:1013E000D9FF37C0DAFF3550DF162CEF0AF0315045
:1013F000D96EDA6ADF50070B336E010E346E332A72
:1014000004EF0AF0D8903436332E02EF0AF0315050
:10141000D96EDA6ADF30E832E832070B020DF3509A
:10142000010FD96EDA6ADECF35F0DDCF36F035C088
:10143000D9FF36C0DAFF3450DF122CEF0AF02CEF60
:101440000AF03250000AD8B4CCEF09F0010AD8B43F
:10145000F7EF09F01FEF0AF0010E1200366A34BEF2
:1014600036EF0AF034EF0AF03CEF0AF0336C341E2A
:10147000D8B0342A010E366E32BE43EF0AF041EF87
:101480000AF049EF0AF0316C321ED8B0322A010E50
:10149000361A000E386E000E376E33503410D8B442
:1014A00054EF0AF056EF0AF07EEF0AF0010E356EA7
:1014B0005EEF0AF0D89033363436352A34AE63EF17
:1014C0000AF065EF0AF05AEF0AF0D890373638364E
:1014D0003350315C34503258D8A071EF0AF073EFBA
:1014E0000AF078EF0AF03350315E3450325A3780C8
:1014F000D89034323332352E65EF0AF03650D8B4F6
:1015000084EF0AF086EF0AF08AEF0AF0376C381E93
:10151000D8B0382A37C031F038C032F01200366AFD
:1015200032BE97EF0AF095EF0AF09DEF0AF0316CAA
:10153000321ED8B0322A010E366E34BEA4EF0AF045
:10154000A2EF0AF0A8EF0AF0336C341ED8B0342AA8
:1015500033503410D8B4AFEF0AF0B1EF0AF0D5EF42
:101560000AF0010E356EB9EF0AF0D89033363436F2
:10157000352A34AEBEEF0AF0C0EF0AF0B5EF0AF03C
:101580003350315C34503258D8A0C9EF0AF0CBEF59
:101590000AF0CFEF0AF03350315E3450325AD8900F
:1015A00034323332352EC0EF0AF03650D8B4DBEF88
:1015B0000AF0DDEF0AF0E1EF0AF0316C321ED8B02C
:1015C000322A31C031F032C032F012003950D8B472
:1015D000ECEF0AF0EEEF0AF0F6EF0AF0090E3A64CB
:1015E000F4EF0AF0F6EF0AF0F9EF0AF03C6A2EEF9A
:1015F0000BF03950D96EDA6A040ED926DE04D8A46D
:1016000004EF0BF006EF0BF007EF0BF03A1E39C0BA
:1016100031F03A50010B326EA3EC09F03C6E3928E0
:10162000316ED8903A30010B326EA3EC09F03C12C7
:101630003950020F316E3A40E8423F0B010B326ED7
:10164000A3EC09F03C123950030F316E3A38E846EA
:101650001F0B010B326EA3EC09F03C123C50120040
:101660003850D8B436EF0BF038EF0BF054EF0BF0E6
:101670003850D96EDA6ADF50070B396E080E3960C0
:1016800044EF0BF046EF0BF054EF0BF03850D96EEF
:10169000DA6ADF50070B396E040E396452EF0BF033
:1016A00054EF0BF057EF0BF0000E69EF0BF038C062
:1016B00031F00DEC09F03A6E38C031F03850D96E87
:1016C000DA6A000EDFBC010E326EA3EC09F03A12AA
:1016D0003A5012003B50D8A470EF0BF072EF0BF0B1
:1016E00075EF0BF03C6A8BEF0BF03BC038F030EC41
:1016F0000BF03C6E3B28386E30EC0BF03C123B504C
:10170000020F386E30EC0BF03C123B50030F386E7A
:1017100030EC0BF03C123C501200346E040E34647A
:1017200094EF0BF096EF0BF099EF0BF0000EAAEF91
:101730000BF03450020DF3500B0FD96EDA6ADECF86
:1017400032F0DDCF33F032C0D9FF33C0DAFF31C021
:10175000DFFF010E1200346E040E3464B2EF0BF0A2
:10176000B4EF0BF0B7EF0BF0000EC8EF0BF03450F6
:10177000020DF350010FD96EDA6ADECF32F0DDCF01
:1017800033F032C0D9FF33C0DAFF31C0DFFF010EC2
:101790001200C40EF66E170EF76E000EF86E00EE15
:1017A00001F010EE30F00900F5CFEEFFE550E1500A
:1017B000FAE1426A416A406A3F6A000EF86E00012F
:1017C00001EF08F0890F8A0F8B0F8C0F8D0F920F8E
:1017D000930F940F950F960F800F810F820F830F39
:1017E000840F0001020304050607080937080B10DF
:1017F000111213002C0E3B6E6AEC0BF0436E000EC0
:0C180000316E030E8DEC0BF0436E1200F5
:04FFFC00C9EF0BF04E
:020000040030CA
:0E000000FF02091EFF8181FF0FC00FE00F40BD
:00000001FF
